:100000000C9408010C9425010C9425010C942501F5
:100010000C9425010C9425010C9425010C942501C8
:100020000C9425010C9425010C94D2060C940C0719
:100030000C9425010C9425010C9425010C942501A8
:100040000C9425010C9425010C9454030C945F032B
:100050000C9448030C9425010C9425010C94250163
:100060000C9425010C9425010C9425010C94250178
:100070000C9425010C9425010C9425010C94250168
:100080000C9425010C9425010C9425010C94250158
:100090000C9425010C9425010C9425010C94250148
:1000A0000C9425010C9425010C9425017A06720606
:1000B0006A0662065A0652064A0642063A063206A0
:1000C0002A0622061A0612060A060206FA05F20592
:1000D000EA05E205DA05D205CA05C205BA05B20588
:1000E000AA05A2059A0592058A0582057A05720578
:1000F0006A0562055A0552054A0542053A05320568
:100100002A0522051A0512050A050205FA04F20459
:10011000EA04E204DA04D204CA04C204BA04B2044F
:10012000AA04A2049A0492048A0482047A04084A63
:10013000D73B3BCE016E84BCBFFDC12F3D6C7431FB
:100140009ABD56833DDA3D00C77F11BED9E4BB4C52
:100150003E916BAAAABE000000803F000001000093
:10016000F3011200020000B0014300030000AC01E3
:100170000401030904980112020309049001060313
:100180000309048601080803340031003000000030
:1001900006034D003200000012034A002E0020002A
:1001A0004600690065006E00650000000403090454
:1001B00009024300020100C03209040000010202EA
:1001C0000100052400100105240101010424020698
:1001D0000524060001070582031000400904010000
:1001E000020A000000070503024000000705840220
:1001F0004000001201000202000010C0167A040044
:1002000001010203010001C11201803601813600A3
:1002100011241FBECFEFDAE0DEBFCDBF11E0A0E0BA
:10022000B1E0EAE1F0E202C005900D92A830B1071A
:10023000D9F721E0A8E0B1E001C01D92A134B207D6
:10024000E1F70E94120D0C940B100C940000E1E6F3
:10025000F0E080E8808310826E9A76980E945C09B4
:10026000E1E8F0E080818B7F808380818D7F8083D7
:1002700080818160808380818061808380818860CB
:100280008083E0E8F0E0808182608083808181600B
:1002900080838FEF9FEF9093890080938800259A49
:1002A000AFE6B0E08C9181608C9310928B0010923D
:1002B0008A00269A8C9184608C93808180628083EE
:1002C00080818061808310928D0010928C00279A2B
:1002D0008C9188608C938081886080838081846029
:1002E00080837894229A239A249A259A2A982B9884
:1002F0002C982D980C94A00B882311F02B9A01C0F8
:100300002B9870938B0060938A000895882311F0D6
:100310002D9A01C02D9870938D0060938C000895E4
:100320002F923F924F925F926F927F928F929F9205
:10033000AF92BF92CF92DF92EF92FF920F931F93F3
:10034000CF93DF93CDB7DEB7A6970FB6F894DEBF95
:100350000FBECDBF89E191E00E94850C109208018B
:100360008091190190911A019A83898380911B01D0
:1003700090911C019C838B8380911F01909120019F
:100380009E838D83809121019091220198878F8394
:1003900080912501909126019A8789878091270174
:1003A000909128019C878B8780912B0190912C0143
:1003B0009E878D8780912D0190912E01988B8F873C
:1003C000FE01319680E090E040E0208131812F3FB6
:1003D000334029F0208531852F3F334021F54423D8
:1003E00069F0E9E0F1E0DE011196819191918D9340
:1003F0009D9381E0E931F807C1F71CC08330910576
:1004000089F02F8138852F3F43E0340729F04F854D
:1004100058894F3F534031F4318320832F853889E9
:100420003187208741E0019632968430910569F644
:10043000411115C19E012F5F3F4F19011C8A1B8A74
:1004400020E030E042E050E0588F4F8B1E8A1D8A3A
:100450001A8A198AAA24A394B12C00E010E0EB892F
:10046000FC893196FA8FE98FF1010190F081E02D3E
:10047000F8A3EF8FF1010084F185E02DFAA3E9A341
:10048000898C9A8C3C8F2B8F1E8E1D8EED8CFE8C52
:10049000E20CF31CF701828193816F8D78A1681BB8
:1004A000790B80E090E00E947D0E2B013C01F7016A
:1004B0008285938569A17AA1681B790B80E090E021
:1004C0000E947D0E6B017C01A3019201C301B20168
:1004D0000E94370F2B013C01A7019601C701B6010D
:1004E0000E94370F9B01AC01C301B2010E94200D95
:1004F0000E944C0E9B0149895A89461757073CF0C8
:100500008B8D9C8D8217930784F09C0114C0B88E4C
:10051000AF8A1E8B0D8B59894A897A8B698B252F5F
:10052000342F54010B891C8906C0988E8F8AEB8961
:10053000FC89FE8BED8BFFEF8F1A9F0A4D8D5E8D30
:100540004E5F5F4F5E8F4D8F54E0851691041CF413
:100550003C8F2B8F9BCF62E0260E311C898D9A8DAC
:10056000039729F0898D9A8D9C8B8B8B78CF902F58
:10057000812FED89FE890E171F0741F0EF89F88D55
:100580000E171F0719F08501A92EB82EF501EE0FE1
:10059000FF1F21E030E02C0F3D1FE20FF31FC08052
:1005A000D180F801EE0FFF1FE20FF31F80809180D2
:1005B000F5013496EE0FFF1FE20FF31FE080F1808C
:1005C000F8013496EE0FFF1FE20FF31F0081118137
:1005D000B6016819790980E090E00E947D0E9B01C8
:1005E000AC01B701601B710B80E090E02BA33CA332
:1005F0004DA35EA30E947D0E2BA13CA14DA15EA147
:100600000E94930D6093390170933A0180933B01EE
:1006100090933C01C80CD91CD694C794B601725073
:1006200080E090E00E947D0E60933501709336016A
:100630008093370190933801E00EF11EF694E79411
:10064000B7016058714080E090E00E947D0E609399
:100650003D0170933E0180933F0190934001A69627
:100660000FB6F894DEBF0FBECDBFDF91CF911F91C3
:100670000F91FF90EF90DF90CF90BF90AF909F9041
:100680008F907F906F905F904F903F902F90089544
:100690001F920F920FB60F9211242A9A2C9A0F9044
:1006A0000FBE0F901F9018951F920F920FB60F92CA
:1006B00011242A980F900FBE0F901F9018951F922B
:1006C0000F920FB60F9211242C980F900FBE0F901F
:1006D0001F9018958091E80080FFFCCF089581E07D
:1006E0008093D70080EA8093D80082E189BD09B465
:1006F00000FEFDCF80E98093D8001092E0001092B8
:100700003401109231018CE08093E20078940895D6
:100710008091340108959FB7F89480913401882323
:1007200039F083E08093E9008091E80085FD03C003
:100730009FBF8FEF08958091F1002091E80025FD83
:1007400003C02BE62093E8009FBF08959FB7F8945D
:1007500080913401882331F083E08093E900809117
:10076000F20001C080E09FBF08958091340188238A
:1007700071F08FB7F89493E09093E9002BE6909195
:10078000E80095FF03C02093E800F9CF8FBF0895DC
:1007900090913401992371F09FB7F89424E020934D
:1007A000E90020913201222349F02091E80025FD43
:1007B00003C09FBF8FEF0895109232012091E40093
:1007C000275E34E04091E80045FD12C09FBF909144
:1007D000E400921304C081E080933201EBCF90914A
:1007E0003401992339F39FB7F8943093E900EACFA5
:1007F0008093F1008091E80085FD03C08AE3809337
:10080000E80085E0809333019FBF80E008959091D8
:1008100034019923D1F09FB7F89424E02093E900A4
:100820002091E80025FD02C09FBF0FC08093F1001A
:100830008091E80085FD03C08AE38093E80085E0AD
:10084000809333019FBF80E008958FEF0895EF926A
:10085000FF921F93CF93DF937C01CB012091340152
:10086000222371F0AFB7F89424E02093E90020919F
:100870003201222349F02091E80025FD03C0AFBFDB
:100880008FEF42C210923201B4E0C0E4DAE315E027
:10089000009709F437C22091E400275E3091E80008
:1008A00035FD12C0AFBF3091E400321304C081E0C7
:1008B00080933201E5CF30913401332309F3AFB790
:1008C000F894B093E900EACF2091F2004C2F421B3C
:1008D000242F30E08217930708F4482F841B9109D6
:1008E00050E04134510508F0FDC14A5A5F4FFA010A
:1008F0000C949F0FF70120812093F10097012F5F47
:100900003F4F7901F70120812093F10097012F5F7C
:100910003F4F7901F70120812093F10097012F5F6C
:100920003F4F7901F70120812093F10097012F5F5C
:100930003F4F7901F70120812093F10097012F5F4C
:100940003F4F7901F70120812093F10097012F5F3C
:100950003F4F7901F70120812093F10097012F5F2C
:100960003F4F7901F70120812093F10097012F5F1C
:100970003F4F7901F70120812093F10097012F5F0C
:100980003F4F7901F70120812093F10097012F5FFC
:100990003F4F7901F70120812093F10097012F5FEC
:1009A0003F4F7901F70120812093F10097012F5FDC
:1009B0003F4F7901F70120812093F10097012F5FCC
:1009C0003F4F7901F70120812093F10097012F5FBC
:1009D0003F4F7901F70120812093F10097012F5FAC
:1009E0003F4F7901F70120812093F10097012F5F9C
:1009F0003F4F7901F70120812093F10097012F5F8C
:100A00003F4F7901F70120812093F10097012F5F7B
:100A10003F4F7901F70120812093F10097012F5F6B
:100A20003F4F7901F70120812093F10097012F5F5B
:100A30003F4F7901F70120812093F10097012F5F4B
:100A40003F4F7901F70120812093F10097012F5F3B
:100A50003F4F7901F70120812093F10097012F5F2B
:100A60003F4F7901F70120812093F10097012F5F1B
:100A70003F4F7901F70120812093F10097012F5F0B
:100A80003F4F7901F70120812093F10097012F5FFB
:100A90003F4F7901F70120812093F10097012F5FEB
:100AA0003F4F7901F70120812093F10097012F5FDB
:100AB0003F4F7901F70120812093F10097012F5FCB
:100AC0003F4F7901F70120812093F10097012F5FBB
:100AD0003F4F7901F70120812093F10097012F5FAB
:100AE0003F4F7901F70120812093F10097012F5F9B
:100AF0003F4F7901F70120812093F10097012F5F8B
:100B00003F4F7901F70120812093F10097012F5F7A
:100B10003F4F7901F70120812093F10097012F5F6A
:100B20003F4F7901F70120812093F10097012F5F5A
:100B30003F4F7901F70120812093F10097012F5F4A
:100B40003F4F7901F70120812093F10097012F5F3A
:100B50003F4F7901F70120812093F10097012F5F2A
:100B60003F4F7901F70120812093F10097012F5F1A
:100B70003F4F7901F70120812093F10097012F5F0A
:100B80003F4F7901F70120812093F10097012F5FFA
:100B90003F4F7901F70120812093F10097012F5FEA
:100BA0003F4F7901F70120812093F10097012F5FDA
:100BB0003F4F7901F70120812093F10097012F5FCA
:100BC0003F4F7901F70120812093F10097012F5FBA
:100BD0003F4F7901F70120812093F10097012F5FAA
:100BE0003F4F7901F70120812093F10097012F5F9A
:100BF0003F4F7901F70120812093F10097012F5F8A
:100C00003F4F7901F70120812093F10097012F5F79
:100C10003F4F7901F70120812093F10097012F5F69
:100C20003F4F7901F70120812093F10097012F5F59
:100C30003F4F7901F70120812093F10097012F5F49
:100C40003F4F7901F70120812093F10097012F5F39
:100C50003F4F7901F70120812093F10097012F5F29
:100C60003F4F7901F70120812093F10097012F5F19
:100C70003F4F7901F70120812093F10097012F5F09
:100C80003F4F7901F70120812093F10097012F5FF9
:100C90003F4F7901F70120812093F10097012F5FE9
:100CA0003F4F7901F70120812093F10097012F5FD9
:100CB0003F4F7901F70120812093F10097012F5FC9
:100CC0003F4F7901F70120812093F10097012F5FB9
:100CD0003F4F7901F70120812093F10097012F5FA9
:100CE0003F4F7901F70120812093F10097012F5F99
:100CF0003F4F79012091E80025FFD093E800109341
:100D00003301C6CDAFBF80E0DF91CF911F91FF903F
:100D1000EF9008958FB7F89490913301992341F0A3
:100D200094E09093E9009AE39093E80010923301E5
:100D30008FBF089580910401089580910501089561
:100D40008091060108958091310108959FB7F8942C
:100D500020913401222339F022E02093E9003091E0
:100D6000E80035FD03C09FBF8FEF089531EA30934F
:100D7000F10030E23093F1001092F1001092F10096
:100D80001092F1001092F1002093F1001092F10006
:100D90008093F1001092F1008AE38093E8009FBFF6
:100DA00080E008951F920F920FB60F9211248F9337
:100DB0009F938091E1001092E10083FF11C0109297
:100DC000E90091E09093EB001092EC0092E1909397
:100DD000ED0098E09093F0001092340110923101F0
:100DE00082FF13C080913401882379F08091330110
:100DF000882359F0815080933301811106C084E02B
:100E00008093E9008AE38093E8009F918F910F908F
:100E10000FBE0F901F9018951F920F920FB60F9252
:100E20001124EF92FF920F931F932F933F934F93B1
:100E30005F936F937F938F939F93AF93BF93EF9342
:100E4000FF93CF93DF931F92CDB7DEB71092E900E7
:100E50008091E80083FF14C19091F1008091F1002E
:100E60003091F1002091F100E32EF12CF22A009153
:100E7000F1002091F10010E0122B2091F10060911F
:100E8000F10032EF3093E800863009F046C036E0DA
:100E90008CE591E0FC01459154914E155F0539F4C4
:100EA000FC013296459154914017510721F0079665
:100EB000315081F7E5C0FC01349645915491FC0115
:100EC0003696849130E0362B2F3F310519F010F023
:100ED0002FEF30E0281708F4822F3EEF9091E800C2
:100EE000292F2570D9F392FDCEC0982F813108F0BB
:100EF00090E1FA01292F222331F064916093F100EF
:100F000021503196F8CF490F511D891B3093E800CD
:100F10008111E4CF903111F3B6C0853051F48EEFDA
:100F20008093E8000E946A038E2D80688093E3001E
:100F3000AAC0893059F5911180C0E0923401109215
:100F40003101109233018EEF8093E80041E085E09B
:100F500092E04093E9009C012F5F3F4FFC015491C8
:100F60005093EB00552359F0F90124912093EC00A4
:100F70009C012D5F3F4F319684918093ED004F5F30
:100F8000453011F0C901E5CF8EE175C0883051F4CC
:100F9000903809F052C00E946A0380913401809316
:100FA000F10047C0813279F4913A09F046C00E94BD
:100FB0006A03E0E0F1E081918093F10081E0E730A5
:100FC000F807C9F736C0803299F49132B1F58091B3
:100FD000E80082FFFCCFE0E0F1E08091F100819336
:100FE00081E0E730F807C9F78BEF8093E80021C074
:100FF000823241F4913209F043C0E09231010E9403
:101000006A0317C0811119C099830E946A039981EC
:10101000923851F40093E9008091EB0085FB88271A
:1010200080F91092E90001C080E08093F1001092F5
:10103000F1008EEF8093E80026C0282F2D7F21300D
:10104000F9F49230E9F4EF28D9F40F779FEF900F7D
:101050009430B0F49EEF9093E8000093E900833061
:1010600079F089E18093EB0081E090E0002E01C0EF
:10107000880F0A94EAF78093EA001092EA0003C00E
:1010800081E28093EB000F90DF91CF91FF91EF9180
:10109000BF91AF919F918F917F916F915F914F9190
:1010A0003F912F911F910F91FF90EF900F900FBEE6
:1010B0000F901F9018951F93CF93DF93EC01FE01C3
:1010C0001491112351F01A3019F48DE00E94C803D5
:1010D000812F0E94C8032196F2CFDF91CF911F91FB
:1010E00008958A3010F490E301C097E3890F0C94BF
:1010F000C803CF93C82F82958F700E9471088C2FE0
:101100008F70CF910C947108CF93C82F892F0E94B4
:1011100079088C2FCF910C9479080C947908EF9270
:10112000FF920F931F93CF93DF93CDB7DEB727972F
:101130000FB6F894DEBF0FBECDBF8E010F5F1F4FFD
:1011400027E0F80111922A95E9F74AE0B8010E94D8
:10115000A50F7E01F8E0EF0EF11CF80181918F01DF
:1011600081110E94C8030E151F05B9F727960FB607
:10117000F894DEBF0FBECDBFDF91CF911F910F91CD
:10118000FF90EF900895EF92FF920F931F93CF93EC
:10119000DF9300D000D000D0CDB7DEB78E010F5F57
:1011A0001F4F26E0F80111922A95E9F74AE0B801AD
:1011B0000E94E10F7E01F6E0EF0EF11CF801819133
:1011C0008F0181110E94C8030E151F05B9F72696DD
:1011D0000FB6F894DEBF0FBECDBFDF91CF911F9148
:1011E0000F91FF90EF900895EF92FF920F931F934E
:1011F000CF93DF93CDB7DEB72B970FB6F894DEBF52
:101200000FBECDBF8E010F5F1F4F2BE0F801119273
:101210002A95E9F72AE0A8010E94B00F7E01FCE0C0
:10122000EF0EF11CF80181918F0181110E94C8031A
:101230000E151F05B9F72B960FB6F894DEBF0FBE3B
:10124000CDBFDF91CF911F910F91FF90EF90089547
:10125000EF92FF920F931F93CF93DF93CDB7DEB73B
:101260002B970FB6F894DEBF0FBECDBF8E010F5F78
:101270001F4F2BE0F80111922A95E9F72AE0A80107
:101280000E94BF0F7E01FBE0EF0EF11CF80181917F
:101290008F0181110E94C8030E151F05B9F72B9607
:1012A0000FB6F894DEBF0FBECDBFDF91CF911F9177
:1012B0000F91FF90EF900895589A599A5A9A8CE09E
:1012C0008093B800E9E6F0E08081806280838081CD
:1012D0008F7E8083EA9A7894089584E88093BC0096
:1012E0008091BC0087FFFCCF8091BB00089584E90A
:1012F0008093BC00089520E030E08091BC0087FD21
:1013000006C02F5F3F4F293E83E03807B1F781E0E9
:10131000283E334009F480E008958093BB0084E8C0
:101320008093BC000E947B09882321F08091B90042
:10133000887F089580E008951F93CF93DF931F92D5
:10134000CDB7DEB7182F84EA8093BC0069830E9472
:101350007B096981811104C094E99093BC0014C099
:10136000812F880F662331F08F5F0E948D098834AA
:1013700051F404C00E948D09803229F484E98093DD
:10138000BC0080E001C081E00F90DF91CF911F9100
:101390000895CF93DF93C82FD62F60E00E949C0959
:1013A000882391F08D2F0E948D09882369F084E9AC
:1013B0008093BC0061E08C2F0E949C09882321F05F
:1013C000DF91CF910C946D0980E0DF91CF9108956A
:1013D000CF93DF93D62FC42F60E00E949C09811128
:1013E00002C080E00EC08D2F0E948D098823C9F3B2
:1013F0008C2F0E948D098823A1F384E98093BC007F
:1014000081E0DF91CF910895CF93DF93D82FC62F3E
:10141000843010F080E05BC06430E0F70E945C092B
:101420002FEF85EA9EE0215080409040E1F700C018
:10143000000065E789E60E94C909883659F741E04E
:101440006BE689E60E94E8094D2F440F440F440FD4
:101450006CE189E60E94E8094C2F440F440F440FC9
:101460006BE189E60E94E80942E067E389E60E94B1
:10147000E80940E062E08EE10E94E80940E067E3AD
:1014800089E60E94E8094EE164E389E60E94E809E2
:1014900041E067E689E60E94E8094DE164E289E6F9
:1014A0000E94E8094EE965E289E60E94E80943E006
:1014B00066E289E60E94E80946E967E289E60E9459
:1014C000E80940E26AE689E60E94E80981E0DF91E6
:1014D000CF910895EF92FF920F931F93CF93DF93D5
:1014E000CDB7DEB765970FB6F894DEBF0FBECDBFA0
:1014F0008C01CE0101967C019EE4692F89E69D8BCB
:101500000E94C909F70181937F019D8991509A3307
:10151000A1F78F859889F801958384838F819885B9
:101520009387828789819A81918B808B89899A8917
:101530009383828389859A85918780878B819C811B
:10154000978786878B899C89918380838B859C85EF
:10155000978386838D819E819587848781E06596B8
:101560000FB6F894DEBF0FBECDBFDF91CF911F91B4
:101570000F91FF90EF900895EF92FF920F931F93BA
:10158000CF93DF93CDB7DEB727970FB6F894DEBFC2
:101590000FBECDBF8C01CE0101967C0190E4692F76
:1015A00089E69F830E94C909F70181937F019F818A
:1015B00091509A33A1F789819A81F80195838483A8
:1015C0008B819C81938382838D819E819183808393
:1015D00081E027960FB6F894DEBF0FBECDBFDF9136
:1015E000CF911F910F91FF90EF900895EF92FF928E
:1015F0000F931F93CF93DF93CDB7DEB727970FB627
:10160000F894DEBF0FBECDBF8C01CE0101967C01E8
:1016100098E4692F89E69F830E94C909F7018193A5
:101620007F019F8191509234A1F789819A81F801BD
:10163000958384838B819C81938382838D819E811A
:101640009183808381E027960FB6F894DEBF0FBEAA
:10165000CDBFDF91CF911F910F91FF90EF90089533
:10166000EF92FF920F931F93CF93DF93CDB7DEB727
:1016700027970FB6F894DEBF0FBECDBF8C01CE0109
:1016800001967C019EE4692F89E69F830E94C90927
:10169000F70181937F019F8191509834A1F789814F
:1016A0009A81F801958384838B819C8193838283C3
:1016B0008D819E819183808381E027960FB6F89477
:1016C000DEBF0FBECDBFDF91CF911F910F91FF9075
:1016D000EF90089520E030E08091BC0087FD06C0C7
:1016E0002F5F3F4F293E83E03807B1F781E0283E66
:1016F000334009F480E008958093BB0084E8809330
:10170000BC000E946A0B882319F08091B900887F81
:101710000895CF93C82F84EA8093BC000E946A0B7F
:10172000882361F08C2F880F0E947C0B803229F473
:1017300084E98093BC0080E001C081E0CF910895EE
:101740000E945C0988E50E94890B811102C080E03B
:10175000089580E30E947C0B8823C9F381E00E94F6
:101760007C0B8823A1F384E98093BC008FE39CE980
:101770000197F1F700C0000088E50E94890B8823DB
:1017800031F380E00E947C0B882309F380E00E9403
:101790007C0B8823E1F280E00E947C0B8823B9F265
:1017A00080E00E947C0B882391F280E00E947C0BF9
:1017B000882369F280E00E947C0B882341F280E05C
:1017C0000E947C0B882319F280E90E947C0B8823FD
:1017D00009F4BDCF84E98093BC008FE39CE90197B5
:1017E000F1F700C0000088E50E94890B882309F406
:1017F000AECF87E00E947C0B882309F4A8CF80E05D
:101800000E947C0B882309F4A2CF81E40E947C0B08
:10181000882309F49CCF84E98093BC008FE39CE982
:101820000197F1F700C0000088E50E94890B88232A
:1018300009F48DCF8AE10E947C0B882309F487CFBD
:1018400080E40E947C0B882309F481CF80E00E9411
:101850007C0B882309F47BCF84E98093BC008FE361
:101860009CE90197F1F700C0000088E50E94890B10
:10187000882309F46CCF83E30E947C0B882309F44E
:1018800066CF83E00E947C0B882309F460CF84E953
:101890008093BC008FE39CE90197F1F700C0000042
:1018A00088E50E94890B882309F451CF80E30E94C8
:1018B0007C0B882309F44BCF88E00E947C0B8823A3
:1018C00009F445CF84E98093BC008FE39CE901973C
:1018D000F1F700C0000081E00895CF93C82F84EA9B
:1018E0008093BC000E946A0B882369F08C2F880FBC
:1018F0008F5F0E947C0B883429F484E98093BC00BC
:1019000080E001C081E0CF910895EF92FF920F93A4
:101910001F93CF93DF93CDB7DEB760970FB6F894E0
:10192000DEBF0FBECDBF7C018E010F5F1F4F80E178
:10193000F80111928A95E9F788E50E94890B8111D7
:1019400002C080E05EC086E30E947C0B8823C9F35E
:1019500084E98093BC00F5E8FA95F1F7000088E58A
:101960000E946D0C882369F3F8019E01205F3F4FB0
:1019700094EC9093BC008091BC0087FFFCCF8091D9
:10198000BB008193E217F307A1F784E88093BC00C2
:101990008091BC0087FFFCCF8091BB00888B84E9DD
:1019A0008093BC00DE01149687016C91762F7073D2
:1019B000AD0142505109FA01808190E0F0E17F9F32
:1019C000800D911D1124F80191838083762F707C06
:1019D0004F5F5F4FFA01808190E0F4E07F9F800DC0
:1019E000911D1124F801938382836F70862F90E0FC
:1019F0009583848313960A5F1F4FA217B307A9F636
:101A000081E060960FB6F894DEBF0FBECDBFDF91C8
:101A1000CF911F910F91FF90EF90089584E98093EB
:101A2000BC0008950E94270160E070E081E00E9400
:101A30007C0160E070E080E00E948601FFCF50589A
:101A4000BB27AA270ED0D2C1C3D130F0C8D120F015
:101A500031F49F3F11F41EF493C10EF4E095E7FBBF
:101A600089C1E92FD4D180F3BA17620773078407BD
:101A7000950718F071F49EF5ECC10EF4E0950B2E6D
:101A8000BA2FA02D0B01B90190010C01CA01A001D0
:101A90001124FF27591B99F0593F50F4503E68F12B
:101AA0001A16F040A22F232F342F4427585FF3CF6C
:101AB000469537952795A795F0405395C9F77EF43D
:101AC0001F16BA0B620B730B840BBAF09150A1F086
:101AD000FF0FBB1F661F771F881FC2F70EC0BA0F0C
:101AE000621F731F841F48F4879577956795B79594
:101AF000F7959E3F08F0B3CF9395880F08F099278C
:101B0000EE0F97958795089563D158F080E891E09E
:101B100009F49EEF64D128F040E851E059F45EEFFB
:101B200009C02EC196C1E92FE07871D168F3092E62
:101B3000052AC1F3261737074807590738F00E2E34
:101B400007F8E02569F0E025E0640AC0EF6307F8D4
:101B5000009407FADB01B9019D01DC01CA01AD0166
:101B6000EF9341D043D10AD05F91552331F02BED53
:101B70003FE049E450FD49EC63CF0895DF93DD2752
:101B8000B92FBF7740E85FE31616170648075B07D3
:101B900010F4D92F65D19F938F937F936F93CAD100
:101BA000EEE2F1E0F0D022D12F913F914F915F9181
:101BB0006AD1DD2349F09058A2EA2AED3FE049ECD2
:101BC0005FE3D0785D274DDFDF9110C108D140F091
:101BD000FFD030F021F45F3F19F0CCC051113AC171
:101BE000CFC015D198F39923C9F35523B1F3951BB1
:101BF000550BBB27AA2762177307840738F09F5F2E
:101C00005F4F220F331F441FAA1FA9F333D00E2E9C
:101C10003AF0E0E830D091505040E695001CCAF709
:101C200029D0FE2F27D0660F771F881FBB1F2617CE
:101C300037074807AB07B0E809F0BB0B802DBF01A1
:101C4000FF2793585F4F2AF09E3F510568F092C0DE
:101C500001C15F3FECF3983EDCF38695779567957D
:101C6000B795F7959F5FC9F7880F911D9695879552
:101C700097F90895E1E0660F771F881FBB1F621771
:101C800073078407BA0720F0621B730B840BBA0B2F
:101C9000EE1F88F7E095089504D06894B111DAC07A
:101CA0000895BDD088F09F5790F0B92F9927B7516C
:101CB000A0F0D1F0660F771F881F991F1AF0BA9510
:101CC000C9F712C0B13081F0C4D0B1E00895C1C0ED
:101CD000672F782F8827B85F39F0B93FCCF3869506
:101CE00077956795B395D9F73EF490958095709563
:101CF00061957F4F8F4F9F4F0895E89409C097FBE0
:101D00003EF490958095709561957F4F8F4F9F4FD2
:101D10009923A9F0F92F96E9BB279395F695879516
:101D200077956795B795F111F8CFFAF4BB0F11F4D9
:101D300060FF1BC06F5F7F4F8F4F9F4F16C0882380
:101D400011F096E911C0772321F09EE8872F762FB6
:101D500005C0662371F096E8862F70E060E02AF0F7
:101D60009A95660F771F881FDAF7880F96958795E3
:101D700097F9089597F99F6780E870E060E008950B
:101D80009FEF80EC0895DF93CF931F930F93FF9203
:101D9000EF92DF927B018C01689405C0DA2EEF018F
:101DA00072D0FE01E894A591259135914591559108
:101DB000AEF3EF0156DEFE019701A801DA9479F740
:101DC000DF90EF90FF900F911F91CF91DF910895D9
:101DD00000240A941616170618060906089500240A
:101DE0000A9412161306140605060895092E039484
:101DF000000C11F4882352F0BB0F40F4BF2B11F4F8
:101E000060FF04C06F5F7F4F8F4F9F4F089557FD56
:101E10009058440F551F59F05F3F71F04795880F58
:101E200097FB991F61F09F3F79F0879508951216EF
:101E300013061406551FF2CF4695F1DF08C016169B
:101E400017061806991FF1CF86957105610508944C
:101E50000895E894BB2766277727CB0197F9089563
:101E60009B01AC0160E070E080E89FE366C00BD0AE
:101E7000BDCFAEDF28F0B3DF18F0952309F07ACF9D
:101E80007FCF1124E7CFC3DFA0F3959FD1F3950F48
:101E900050E0551F629FF001729FBB27F00DB11DEE
:101EA000639FAA27F00DB11DAA1F649F6627B00D7E
:101EB000A11D661F829F2227B00DA11D621F739F67
:101EC000B00DA11D621F839FA00D611D221F749F75
:101ED0003327A00D611D231F849F600D211D822FBC
:101EE000762F6A2F11249F5750408AF0E1F0882303
:101EF0004AF0EE0FFF1FBB1F661F771F881F915010
:101F00005040A9F79E3F510570F034CFA3CF5F3FFB
:101F1000ECF3983EDCF3869577956795B795F79542
:101F2000E7959F5FC1F7FE2B880F911D96958795CA
:101F300097F908959B01AC019ACF53DE57CFEE0F6E
:101F4000FF1F0590F491E02D0994BB274A3031F42E
:101F5000992322F4BDE2909581959F4F0C94E20F56
:101F6000BB272A3051F4992342F4BDE29095809525
:101F7000709561957F4F8F4F9F4F0C94C00FBB277B
:101F8000FA01A62F6217710581059105330B30FB0D
:101F900066F0AA27660F771F881F991FAA1FA2172E
:101FA00010F0A21B63953850A9F7A05DAA3308F082
:101FB000A95DA19336F7B111B1931082CA010C94B7
:101FC000FB0FBB27FB015527AA27880F991FAA1FC4
:101FD000A41710F0A41B83955051B9F7A05DAA3344
:101FE00008F0A95DA193009779F7B111B19311920F
:101FF000CB010C94FB0FDC01FC01672F719177235F
:10200000E1F7329704C07C916D9370836291AE17B3
:0A201000BF07C8F30895F894FFCF4E
:08201A0000E1000000000800D5
:00000001FF
