:100000000C9408010C9425010C9425010C942501F5
:100010000C9425010C9425010C9425010C942501C8
:100020000C9425010C9425010C94FC070C943608C3
:100030000C9425010C9425010C9425010C942501A8
:100040000C9425010C9425010C947E040C948904D5
:100050000C9472040C9425010C9425010C94250138
:100060000C9425010C9425010C9425010C94250178
:100070000C9425010C9425010C9425010C94250168
:100080000C9425010C9425010C9425010C94250158
:100090000C9425010C9425010C9425010C94250148
:1000A0000C9425010C9425010C942501A4079C07B0
:1000B00094078C0784077C0774076C0764075C0748
:1000C00054074C0744073C0734072C0724071C0738
:1000D00014070C070407FC06F406EC06E406DC062D
:1000E000D406CC06C406BC06B406AC06A4069C0620
:1000F00094068C0684067C0674066C0664065C0610
:1001000054064C0644063C0634062C0624061C06FF
:1001100014060C060406FC05F405EC05E405DC05F4
:10012000D405CC05C405BC05B405AC05A405084A36
:10013000D73B3BCE016E84BCBFFDC12F3D6C7431FB
:100140009ABD56833DDA3D00C77F11BED9E4BB4C52
:100150003E916BAAAABE000000803F000001000093
:10016000F3011200020000B0014300030000AC01E3
:100170000401030904980112020309049001060313
:100180000309048601080803340031003000000030
:1001900006034D003200000012034A002E0020002A
:1001A0004600690065006E00650000000403090454
:1001B00009024300020100C03209040000010202EA
:1001C0000100052400100105240101010424020698
:1001D0000524060001070582031000400904010000
:1001E000020A000000070503024000000705840220
:1001F0004000001201000202000010C0167A040044
:1002000001010203010001C11201803601813600A3
:1002100011241FBECFEFDAE0DEBFCDBF11E0A0E0BA
:10022000B1E0E4EBF4E202C005900D92A830B10712
:10023000D9F721E0A8E0B1E001C01D92AC34B207CB
:10024000E1F70E94300F0C9458120C94000080E8E3
:1002500080936100109261006E9A76980E94860ADF
:10026000809181008B7F80938100809181008D7FC0
:1002700080938100809181008160809381008091D2
:1002800081008061809381008091810088608093EB
:100290008100809180008260809380008091800046
:1002A0008160809380008FEF9FEF9093890080930F
:1002B0008800259A80916F00816080936F00109272
:1002C0008B0010928A00269A80916F008460809340
:1002D0006F00809180008062809380008091800018
:1002E00080618093800010928D0010928C00279A7C
:1002F00080916F00886080936F008091800088609B
:100300008093800080918000846080938000789446
:10031000209A219A229A239A289829982A982B98E9
:100320000E94CA0C0E9499040E94B2048823E1F33F
:100330006E9A769A0895882311F0299A01C0299817
:1003400070938B0060938A000895882311F02B9A94
:1003500001C02B9870938D0060938C0008952F92AC
:100360003F924F925F926F927F928F929F92AF9245
:10037000BF92CF92DF92EF92FF920F931F93CF9392
:10038000DF93CDB7DEB7A6970FB6F894DEBF0FBEEA
:10039000CDBF89E191E00E94AF0D109208018091DC
:1003A000190190911A019A83898380911F0190917C
:1003B00020019C838B8380912501909126019E834F
:1003C0008D8380912B0190912C0198878F83809150
:1003D0001B0190911C019A8789878091210190913E
:1003E00022019C878B8780912701909128019E870D
:1003F0008D8780912D0190912E01988B8F87FE0122
:10040000319680E090E040E0208131812F3F334001
:1004100029F0208531852F3F334021F5442369F0B1
:10042000E9E0F1E0DE011196819191918D939D9328
:1004300081E0E931F807C1F71CC08330910589F0EC
:100440002F8138852F3F43E0340729F04F855889A5
:100450004F3F534031F4318320832F8538893187D2
:10046000208741E0019632968430910569F641116A
:1004700028C19E012F5F3F4F19011C8A1B8A20E073
:1004800030E042E050E0588F4F8B1E8A1D8A1A8A56
:10049000198AAA24A394B12C00E010E0EB89FC890E
:1004A0003196FA8FE98FF1010190F081E02DF8A3E8
:1004B000EF8FF1010084F185E02DFAA3E9A3898C87
:1004C0009A8C3C8F2B8F1E8E1D8EED8CFE8CE20C39
:1004D000F31CF701828193816F8D78A1681B790BE2
:1004E00080E090E00E94A2102B013C01F701828580
:1004F000938569A17AA1681B790B80E090E00E9446
:10050000A2106B017C01A3019201C301B2010E9400
:1005100084112B013C01A7019601C701B6010E947D
:1005200084119B01AC01C301B2010E94410F0E94E2
:1005300071109B0149895A89461757073CF08B8DEA
:100540009C8D8217930784F09C0114C0B88EAF8AEB
:100550001E8B0D8B59894A897A8B698B252F342FF5
:1005600054010B891C8906C0988E8F8AEB89FC89FF
:10057000FE8BED8BFFEF8F1A9F0A4D8D5E8D4E5FC8
:100580005F4F5E8F4D8F54E0851691041CF43C8FB5
:100590002B8F9BCF62E0260E311C898D9A8D03979D
:1005A00029F0898D9A8D9C8B8B8B78CF902F812F02
:1005B000ED89FE890E171F0741F0EF89F88D0E17A0
:1005C0001F0719F08501A92EB82EF501EE0FFF1FA8
:1005D00021E030E02C0F3D1FE20FF31FC080D180DF
:1005E000F801EE0FFF1FE20FF31F80809180F501ED
:1005F0003496EE0FFF1FE20FF31FE080F180F80149
:100600003496EE0FFF1FE20FF31F00811181B60138
:100610006819790980E090E00E94A2109B01AC016A
:10062000B701601B710B80E090E02BA33CA34DA3AE
:100630005EA30E94A2102BA13CA14DA15EA10E942D
:10064000B40F2B013C01B4016C0D7D1D80E090E0E6
:100650000E94A21020E030E040E05FE30E9484119D
:1006600020E030E040E054E40E94400F6093360107
:10067000709337018093380190933901B8016E0D62
:100680007F1D80E090E00E94A21020E030E040E07A
:100690005FE30E94841120E030E040EC53E40E94CC
:1006A000400F609348017093490180934A019093F1
:1006B0004B0140923A0150923B0160923C01709292
:1006C0003D01A6960FB6F894DEBF0FBECDBFDF91F9
:1006D000CF911F910F91FF90EF90DF90CF90BF903F
:1006E000AF909F908F907F906F905F904F903F90D2
:1006F0002F90089581E60E94F20420E030E048EC5B
:1007000052E460913A0170913B0180913C019091DB
:100710003D010E9484110E947110CB010E94B90911
:100720008DE00E94F2048AE00E94F20488E70E94B1
:10073000F2046091360170913701809138019091F7
:1007400039010E947110CB010E94B9098DE00E940D
:10075000F2048AE00E94F20489E70E94F2046091A8
:1007600048017091490180914A0190914B010E948A
:100770007110CB010E94B9098DE00E94F2048AE059
:100780000E94F2048DE00E94F2048AE00C94F204CC
:100790004F925F926F927F928F929F92AF92BF9291
:1007A000CF92DF92EF92FF92209136013091370184
:1007B000409138015091390160E070E08AEF93E494
:1007C0000E94400F6B017C0140904801509049010C
:1007D00060904A0170904B01A301920160E070E0CB
:1007E0008AE793E40E94400FA70196010E94B40F8C
:1007F0004B015C01A301920160E070E08AE793EC99
:100800000E94400FA70196010E94B40F2B013C01EA
:10081000C0903A01D0903B01E0903C01F0903D0146
:10082000A5019401C701B6010E94400F20E030E00D
:10083000A9010E94791118164CF46FEF7FE781E04F
:100840000E949B016FEF7FE780E017C0A301920138
:10085000C701B6010E94400F20E030E0A9010E94CC
:1008600007106FEF7FE787FF02C080E001C081E0E3
:100870000E949B016FEF7FE781E0FF90EF90DF9098
:10088000CF90BF90AF909F908F907F906F905F9030
:100890004F900C94A5016FEF7FE781E00E949B01D0
:1008A0006FEF7FE780E00E94A5012FEF87EA91E6D6
:1008B000215080409040E1F700C000006FEF7FE7DB
:1008C00080E00E949B016FEF7FE781E00E94A5011D
:1008D0002FEF87EA91E6215080409040E1F700C079
:1008E000000008951F920F920FB60F921124289ABC
:1008F0002A9A0F900FBE0F901F9018951F920F927B
:100900000FB60F92112428980F900FBE0F901F90D2
:1009100018951F920F920FB60F9211242A980F90DC
:100920000FBE0F901F9018958091E80080FFFCCFBC
:10093000089581E08093D70080EA8093D80082E117
:1009400089BD09B400FEFDCF80E98093D8001092E4
:10095000E00010923501109232018CE08093E200A9
:10096000789408958091350108959FB7F894809107
:100970003501882339F083E08093E9008091E80015
:1009800085FD03C09FBF8FEF08958091F1002091F6
:10099000E80025FD03C02BE62093E8009FBF0895E3
:1009A0009FB7F89480913501882331F083E08093DC
:1009B000E9008091F20001C080E09FBF089580911E
:1009C0003501882371F08FB7F89493E09093E90094
:1009D0002BE69091E80095FF03C02093E800F9CF43
:1009E0008FBF089590913501992371F09FB7F894C6
:1009F00024E02093E90020913301222349F0209143
:100A0000E80025FD03C09FBF8FEF089510923301CA
:100A10002091E400275E34E04091E80045FD12C0DB
:100A20009FBF9091E400921304C081E08093330152
:100A3000EBCF90913501992339F39FB7F894309318
:100A4000E900EACF8093F1008091E80085FD03C0C2
:100A50008AE38093E80085E0809334019FBF80E0C3
:100A60000895909135019923D1F09FB7F89424E02F
:100A70002093E9002091E80025FD02C09FBF0FC030
:100A80008093F1008091E80085FD03C08AE38093A4
:100A9000E80085E0809334019FBF80E008958FEFE8
:100AA0000895EF92FF921F93CF93DF937C01CB01C8
:100AB00020913501222371F0AFB7F89424E0209300
:100AC000E90020913301222349F02091E80025FD1F
:100AD00003C0AFBF8FEF42C210923301B4E0C0E455
:100AE000DAE315E0009709F437C22091E400275EAD
:100AF0003091E80035FD12C0AFBF3091E4003213F1
:100B000004C081E080933301E5CF30913501332378
:100B100009F3AFB7F894B093E900EACF2091F2005F
:100B20004C2F421B242F30E08217930708F4482FE4
:100B3000841B910950E04134510508F0FDC14A5A27
:100B40005F4FFA010C94EC11F70120812093F10022
:100B500097012F5F3F4F7901F70120812093F1002A
:100B600097012F5F3F4F7901F70120812093F1001A
:100B700097012F5F3F4F7901F70120812093F1000A
:100B800097012F5F3F4F7901F70120812093F100FA
:100B900097012F5F3F4F7901F70120812093F100EA
:100BA00097012F5F3F4F7901F70120812093F100DA
:100BB00097012F5F3F4F7901F70120812093F100CA
:100BC00097012F5F3F4F7901F70120812093F100BA
:100BD00097012F5F3F4F7901F70120812093F100AA
:100BE00097012F5F3F4F7901F70120812093F1009A
:100BF00097012F5F3F4F7901F70120812093F1008A
:100C000097012F5F3F4F7901F70120812093F10079
:100C100097012F5F3F4F7901F70120812093F10069
:100C200097012F5F3F4F7901F70120812093F10059
:100C300097012F5F3F4F7901F70120812093F10049
:100C400097012F5F3F4F7901F70120812093F10039
:100C500097012F5F3F4F7901F70120812093F10029
:100C600097012F5F3F4F7901F70120812093F10019
:100C700097012F5F3F4F7901F70120812093F10009
:100C800097012F5F3F4F7901F70120812093F100F9
:100C900097012F5F3F4F7901F70120812093F100E9
:100CA00097012F5F3F4F7901F70120812093F100D9
:100CB00097012F5F3F4F7901F70120812093F100C9
:100CC00097012F5F3F4F7901F70120812093F100B9
:100CD00097012F5F3F4F7901F70120812093F100A9
:100CE00097012F5F3F4F7901F70120812093F10099
:100CF00097012F5F3F4F7901F70120812093F10089
:100D000097012F5F3F4F7901F70120812093F10078
:100D100097012F5F3F4F7901F70120812093F10068
:100D200097012F5F3F4F7901F70120812093F10058
:100D300097012F5F3F4F7901F70120812093F10048
:100D400097012F5F3F4F7901F70120812093F10038
:100D500097012F5F3F4F7901F70120812093F10028
:100D600097012F5F3F4F7901F70120812093F10018
:100D700097012F5F3F4F7901F70120812093F10008
:100D800097012F5F3F4F7901F70120812093F100F8
:100D900097012F5F3F4F7901F70120812093F100E8
:100DA00097012F5F3F4F7901F70120812093F100D8
:100DB00097012F5F3F4F7901F70120812093F100C8
:100DC00097012F5F3F4F7901F70120812093F100B8
:100DD00097012F5F3F4F7901F70120812093F100A8
:100DE00097012F5F3F4F7901F70120812093F10098
:100DF00097012F5F3F4F7901F70120812093F10088
:100E000097012F5F3F4F7901F70120812093F10077
:100E100097012F5F3F4F7901F70120812093F10067
:100E200097012F5F3F4F7901F70120812093F10057
:100E300097012F5F3F4F7901F70120812093F10047
:100E400097012F5F3F4F7901F70120812093F10037
:100E500097012F5F3F4F7901F70120812093F10027
:100E600097012F5F3F4F7901F70120812093F10017
:100E700097012F5F3F4F7901F70120812093F10007
:100E800097012F5F3F4F7901F70120812093F100F7
:100E900097012F5F3F4F7901F70120812093F100E7
:100EA00097012F5F3F4F7901F70120812093F100D7
:100EB00097012F5F3F4F7901F70120812093F100C7
:100EC00097012F5F3F4F7901F70120812093F100B7
:100ED00097012F5F3F4F7901F70120812093F100A7
:100EE00097012F5F3F4F7901F70120812093F10097
:100EF00097012F5F3F4F7901F70120812093F10087
:100F000097012F5F3F4F7901F70120812093F10076
:100F100097012F5F3F4F7901F70120812093F10066
:100F200097012F5F3F4F7901F70120812093F10056
:100F300097012F5F3F4F7901F70120812093F10046
:100F400097012F5F3F4F79012091E80025FFD09353
:100F5000E80010933401C6CDAFBF80E0DF91CF91A0
:100F60001F91FF90EF9008958FB7F89490913401FE
:100F7000992341F094E09093E9009AE39093E8007C
:100F8000109234018FBF08958091040108958091DB
:100F90000501089580910601089580913201089518
:100FA0009FB7F89420913501222339F022E0209355
:100FB000E9003091E80035FD03C09FBF8FEF089531
:100FC00031EA3093F10030E23093F1001092F100F9
:100FD0001092F1001092F1001092F1002093F100B4
:100FE0001092F1008093F1001092F1008AE3809357
:100FF000E8009FBF80E008951F920F920FB60F92F6
:1010000011248F939F938091E1001092E10083FF60
:1010100011C01092E90091E09093EB001092EC0067
:1010200092E19093ED0098E09093F00010923501DA
:101030001092320182FF13C080913501882379F02C
:1010400080913401882359F08150809334018111BB
:1010500006C084E08093E9008AE38093E8009F91D2
:101060008F910F900FBE0F901F9018951F920F92A7
:101070000FB60F921124EF92FF920F931F932F93AD
:101080003F934F935F936F937F938F939F93AF9310
:10109000BF93EF93FF93CF93DF931F92CDB7DEB74C
:1010A0001092E9008091E80083FF14C19091F10053
:1010B0008091F1003091F1002091F100E32EF12CAC
:1010C000F22A0091F1002091F10010E0122B209102
:1010D000F1006091F10032EF3093E800863009F0C2
:1010E00046C036E08CE591E0FC01459154914E15E7
:1010F0005F0539F4FC013296459154914017510730
:1011000021F00796315081F7E5C0FC0134964591F6
:101110005491FC013696849130E0362B2F3F3105F7
:1011200019F010F02FEF30E0281708F4822F3EEF6F
:101130009091E800292F2570D9F392FDCEC0982F09
:10114000813108F090E1FA01292F222331F06491D6
:101150006093F10021503196F8CF490F511D891B42
:101160003093E8008111E4CF903111F3B6C085309F
:1011700051F48EEF8093E8000E9494048E2D8068D5
:101180008093E300AAC0893059F5911180C0E092A4
:10119000350110923201109234018EEF8093E800F5
:1011A00041E085E092E04093E9009C012F5F3F4FD2
:1011B000FC0154915093EB00552359F0F90124910F
:1011C0002093EC009C012D5F3F4F319684918093DA
:1011D000ED004F5F453011F0C901E5CF8EE175C0DC
:1011E000883051F4903809F052C00E9494048091E4
:1011F00035018093F10047C0813279F4913A09F0CA
:1012000046C00E949404E0E0F1E081918093F100F7
:1012100081E0E730F807C9F736C0803299F491329F
:10122000B1F58091E80082FFFCCFE0E0F1E0809131
:10123000F100819381E0E730F807C9F78BEF8093E5
:10124000E80021C0823241F4913209F043C0E092BB
:1012500032010E94940417C0811119C099830E9421
:1012600094049981923851F40093E9008091EB0045
:1012700085FB882780F91092E90001C080E0809307
:10128000F1001092F1008EEF8093E80026C0282F25
:101290002D7F2130F9F49230E9F4EF28D9F40F775B
:1012A0009FEF900F9430B0F49EEF9093E80000937E
:1012B000E900833079F089E18093EB0081E090E0F0
:1012C000002E01C0880F0A94EAF78093EA0010927A
:1012D000EA0003C081E28093EB000F90DF91CF9191
:1012E000FF91EF91BF91AF919F918F917F916F91FE
:1012F0005F914F913F912F911F910F91FF90EF9030
:101300000F900FBE0F901F9018951F93CF93DF93F0
:10131000EC01FE011491112351F01A3019F48DE003
:101320000E94F204812F0E94F2042196F2CFDF91F5
:10133000CF911F9108958A3010F490E301C097E394
:10134000890F0C94F204CF93C82F82958F700E945E
:101350009B098C2F8F70CF910C949B09CF93C82F32
:10136000892F0E94A3098C2FCF910C94A3090C9470
:10137000A309EF92FF920F931F93CF93DF93CDB703
:10138000DEB727970FB6F894DEBF0FBECDBF8E0134
:101390000F5F1F4F27E0F80111922A95E9F74AE005
:1013A000B8010E94F2117E01F8E0EF0EF11CF80185
:1013B00081918F0181110E94F2040E151F05B9F76A
:1013C00027960FB6F894DEBF0FBECDBFDF91CF9149
:1013D0001F910F91FF90EF900895EF92FF920F935E
:1013E0001F93CF93DF9300D000D000D0CDB7DEB7EE
:1013F0008E010F5F1F4F26E0F80111922A95E9F741
:101400004AE0B8010E942E127E01F6E0EF0EF11CB8
:10141000F80181918F0181110E94F2040E151F05C0
:10142000B9F726960FB6F894DEBF0FBECDBFDF9199
:10143000CF911F910F91FF90EF900895EF92FF923F
:101440000F931F93CF93DF93CDB7DEB72B970FB6D4
:10145000F894DEBF0FBECDBF8E010F5F1F4F2BE094
:10146000F80111922A95E9F72AE0A8010E94FD11DE
:101470007E01FCE0EF0EF11CF80181918F018111DA
:101480000E94F2040E151F05B9F72B960FB6F894BB
:10149000DEBF0FBECDBFDF91CF911F910F91FF90A7
:1014A000EF900895EF92FF920F931F93CF93DF93E6
:1014B000CDB7DEB72B970FB6F894DEBF0FBECDBF0A
:1014C0008E010F5F1F4F2BE0F80111922A95E9F76B
:1014D0002AE0A8010E940C127E01FBE0EF0EF11C35
:1014E000F80181918F0181110E94F2040E151F05F0
:1014F000B9F72B960FB6F894DEBF0FBECDBFDF91C4
:10150000CF911F910F91FF90EF900895589A599A9B
:101510005A9A8CE08093B800E9E6F0E0808180621E
:10152000808380818F7E8083EA9A7894089584E80E
:101530008093BC008091BC0087FFFCCF8091BB00F2
:10154000089584E98093BC00089520E030E0809104
:10155000BC0087FD06C02F5F3F4F293E83E0380760
:10156000B1F781E0283E334009F480E0089580938C
:10157000BB0084E88093BC000E94A50A882321F068
:101580008091B900887F089580E008951F93CF93DC
:10159000DF931F92CDB7DEB7182F84EA8093BC008B
:1015A00069830E94A50A6981811104C094E990931E
:1015B000BC0014C0812F880F662331F08F5F0E941A
:1015C000B70A883451F404C00E94B70A803229F463
:1015D00084E98093BC0080E001C081E00F90DF913E
:1015E000CF911F910895CF93DF93C82FD62F60E03E
:1015F0000E94C60A882391F08D2F0E94B70A882383
:1016000069F084E98093BC0061E08C2F0E94C60AD7
:10161000882321F0DF91CF910C94970A80E0DF912D
:10162000CF910895CF93DF93D62FC42F60E00E940F
:10163000C60A811102C080E00EC08D2F0E94B70A39
:101640008823C9F38C2F0E94B70A8823A1F384E969
:101650008093BC0081E0DF91CF910895CF93DF9319
:10166000D82FC62F843010F080E05BC06430E0F7E4
:101670000E94860A2FEF85EA9EE02150804090402C
:10168000E1F700C0000065E789E60E94F30A8836AA
:1016900059F741E06BE689E60E94120B4D2F440F8B
:1016A000440F440F6CE189E60E94120B4C2F440F4B
:1016B000440F440F6BE189E60E94120B42E067E39E
:1016C00089E60E94120B40E062E08EE10E94120B5C
:1016D00040E067E389E60E94120B4EE164E389E68D
:1016E0000E94120B41E067E689E60E94120B4DE171
:1016F00064E289E60E94120B4EE965E289E60E94E7
:10170000120B43E066E289E60E94120B46E967E2AB
:1017100089E60E94120B40E26AE689E60E94120BFB
:1017200081E0DF91CF910895EF92FF920F931F9385
:10173000CF93DF93CDB7DEB765970FB6F894DEBFD2
:101740000FBECDBF8C01CE0101967C019EE4692FB6
:1017500089E69D8B0E94F30AF70181937F019D89A1
:1017600091509A33A1F78F859889F80195838483E6
:101770008F8198859387828789819A81918B808BCD
:1017800089899A899383828389859A8591878087BD
:101790008B819C81978786878B899C8991838083A5
:1017A0008B859C85978386838D819E819587848791
:1017B00081E065960FB6F894DEBF0FBECDBFDF9116
:1017C000CF911F910F91FF90EF900895EF92FF92AC
:1017D0000F931F93CF93DF93CDB7DEB727970FB645
:1017E000F894DEBF0FBECDBF8C01CE0101967C0107
:1017F00090E4692F89E69F830E94F30AF7018193A1
:101800007F019F8191509A33A1F789819A81F801D4
:10181000958384838B819C81938382838D819E8138
:101820009183808381E027960FB6F894DEBF0FBEC8
:10183000CDBFDF91CF911F910F91FF90EF90089551
:10184000EF92FF920F931F93CF93DF93CDB7DEB745
:1018500027970FB6F894DEBF0FBECDBF8C01CE0127
:1018600001967C0198E4692F89E69F830E94F30A20
:10187000F70181937F019F8191509234A1F7898173
:101880009A81F801958384838B819C8193838283E1
:101890008D819E819183808381E027960FB6F89495
:1018A000DEBF0FBECDBFDF91CF911F910F91FF9093
:1018B000EF900895EF92FF920F931F93CF93DF93D2
:1018C000CDB7DEB727970FB6F894DEBF0FBECDBFFA
:1018D0008C01CE0101967C019EE4692F89E69F83ED
:1018E0000E94F30AF70181937F019F819150983400
:1018F000A1F789819A81F801958384838B819C81EA
:10190000938382838D819E819183808381E027965A
:101910000FB6F894DEBF0FBECDBFDF91CF911F9100
:101920000F91FF90EF90089520E030E08091BC008F
:1019300087FD06C02F5F3F4F293E83E03807B1F790
:1019400081E0283E334009F480E008958093BB0095
:1019500084E88093BC000E94940C882319F0809145
:10196000B900887F0895CF93C82F84EA8093BC0084
:101970000E94940C882361F08C2F880F0E94A60C83
:10198000803229F484E98093BC0080E001C081E0CA
:10199000CF9108950E94860A88E50E94B30C8111B8
:1019A00002C080E0089580E30E94A60C8823C9F35A
:1019B00081E00E94A60C8823A1F384E98093BC00F7
:1019C0008FE39CE90197F1F700C0000088E50E94D1
:1019D000B30C882331F380E00E94A60C882309F31E
:1019E00080E00E94A60C8823E1F280E00E94A60C11
:1019F0008823B9F280E00E94A60C882391F280E04F
:101A00000E94A60C882369F280E00E94A60C88231D
:101A100041F280E00E94A60C882319F280E90E941E
:101A2000A60C882309F4BDCF84E98093BC008FE322
:101A30009CE90197F1F700C0000088E50E94B30C13
:101A4000882309F4AECF87E00E94A60C882309F40E
:101A5000A8CF80E00E94A60C882309F4A2CF81E4DD
:101A60000E94A60C882309F49CCF84E98093BC00D3
:101A70008FE39CE90197F1F700C0000088E50E9420
:101A8000B30C882309F48DCF8AE10E94A60C882329
:101A900009F487CF80E40E94A60C882309F481CF43
:101AA00080E00E94A60C882309F47BCF84E9809310
:101AB000BC008FE39CE90197F1F700C0000088E5C6
:101AC0000E94B30C882309F46CCF83E30E94A60C18
:101AD000882309F466CF83E00E94A60C882309F4CA
:101AE00060CF84E98093BC008FE39CE90197F1F714
:101AF00000C0000088E50E94B30C882309F451CF90
:101B000080E30E94A60C882309F44BCF88E00E9452
:101B1000A60C882309F445CF84E98093BC008FE3A9
:101B20009CE90197F1F700C0000081E00895CF9390
:101B3000C82F84EA8093BC000E94940C882369F02B
:101B40008C2F880F8F5F0E94A60C883429F484E9BB
:101B50008093BC0080E001C081E0CF910895EF92B6
:101B6000FF920F931F93CF93DF93CDB7DEB76097AC
:101B70000FB6F894DEBF0FBECDBF7C018E010F5FA4
:101B80001F4F80E1F80111928A95E9F788E50E94DC
:101B9000B30C811102C080E05EC086E30E94A60CF7
:101BA0008823C9F384E98093BC00F5E8FA95F1F73E
:101BB000000088E50E94970D882369F3F8019E01D3
:101BC000205F3F4F94EC9093BC008091BC0087FF56
:101BD000FCCF8091BB008193E217F307A1F784E863
:101BE0008093BC008091BC0087FFFCCF8091BB003C
:101BF000888B84E98093BC00DE01149687016C9188
:101C0000762F7073AD0142505109FA01808190E046
:101C1000F0E17F9F800D911D1124F8019183808355
:101C2000762F707C4F5F5F4FFA01808190E0F4E087
:101C30007F9F800D911D1124F801938382836F7023
:101C4000862F90E09583848313960A5F1F4FA21717
:101C5000B307A9F681E060960FB6F894DEBF0FBE19
:101C6000CDBFDF91CF911F910F91FF90EF9008951D
:101C700084E98093BC000895CF93DF9300D01F9236
:101C8000CDB7DEB74B836A8389830E94860A94EAC4
:101C90009093BC0089816A814B819091BC0097FF31
:101CA000FCCF90E59093BB0094E89093BC0090919A
:101CB000BC0097FFFCCF9091B900987F903229F437
:101CC00084E98093BC0080E029C091E09093BB0040
:101CD00094E89093BC009091BC0097FFFCCF809358
:101CE000BB0084E88093BC008091BC0087FFFCCFE0
:101CF0006093BB0084E88093BC008091BC0087FFA8
:101D0000FCCF4093BB0084E88093BC008091BC0072
:101D100087FFFCCF84E98093BC0081E00F900F9097
:101D20000F90DF91CF91089524EA2093BC00209179
:101D3000BC0027FFFCCF21E52093BB0024E82093C3
:101D4000BC002091BC0027FFFCCF2091B900287F68
:101D50002834A9F024EC2093BC002091BC0027FF7C
:101D6000FCCF2091BB0026130AC0FC0120E030E02C
:101D7000772767FD70956150710944EC0EC084E9C6
:101D80008093BC0080E008955091BC0057FFFCCFC9
:101D90005091BB0051932F5F3F4F261737071CF41C
:101DA0004093BC00F1CF44E84093BC004091BC009C
:101DB00047FFFCCF4091BB00FC01E20FF31F4083C3
:101DC00084E98093BC0081E00895F89494EA9093AC
:101DD000BC009091BC0097FFFCCF90E59093BB00B6
:101DE00094E89093BC009091BC0097FFFCCF909139
:101DF000B900987F903231F484E98093BC007894E4
:101E000080E0089593E09093BB0094E89093BC0029
:101E10009091BC0097FFFCCF8093BB0084E8809337
:101E2000BC008091BC0087FFFCCFFB01552747FD1C
:101E3000509524E8CF01861B970B8417950754F41F
:101E400081918093BB002093BC008091BC0087FFF0
:101E5000FCCFF0CF84E98093BC00789481E00895B2
:101E60000E9427010E94AF010E947A032FEF87EAA8
:101E700091E6215080409040E1F700C00000F2CF91
:101E80005058BB27AA270ED0FAC1EBD130F0F0D1C1
:101E900020F031F49F3F11F41EF4BBC10EF4E09525
:101EA000E7FBB1C1E92FFCD180F3BA1762077307D2
:101EB0008407950718F071F49EF514C20EF4E095AE
:101EC0000B2EBA2FA02D0B01B90190010C01CA01F4
:101ED000A0011124FF27591B99F0593F50F4503E9F
:101EE00068F11A16F040A22F232F342F4427585F91
:101EF000F3CF469537952795A795F0405395C9F7A9
:101F00007EF41F16BA0B620B730B840BBAF0915060
:101F1000A1F0FF0FBB1F661F771F881FC2F70EC0FF
:101F2000BA0F621F731F841F48F4879577956795D2
:101F3000B795F7959E3F08F0B3CF9395880F08F0BB
:101F40009927EE0F9795879508958BD158F080E8E3
:101F500091E009F49EEF8CD128F040E851E059F46B
:101F60005EEF09C056C1BEC1E92FE07899D168F390
:101F7000092E052AC1F3261737074807590738F0F5
:101F80000E2E07F8E02569F0E025E0640AC0EF6353
:101F900007F8009407FADB01B9019D01DC01CA01D1
:101FA000AD01EF9345D06BD10AD05F91552331F04D
:101FB0002BED3FE049E450FD49EC63CF0895DF93FA
:101FC000DD27B92FBF7740E85FE3161617064807ED
:101FD0005B0710F4D92F91D19F938F937F936F93C9
:101FE000F6D1EEE2F1E018D14AD12F913F914F9115
:101FF0005F9196D1DD2349F09058A2EA2AED3FE0A7
:1020000049EC5FE3D0785D274DDFDF9138C1D7D051
:1020100008F481E008952CD140F023D130F021F470
:102020005F3F19F0F0C051115EC1F3C039D198F390
:102030009923C9F35523B1F3951B550BBB27AA2749
:1020400062177307840738F09F5F5F4F220F331FBB
:10205000441FAA1FA9F333D00E2E3AF0E0E830D087
:1020600091505040E695001CCAF729D0FE2F27D08A
:10207000660F771F881FBB1F261737074807AB0758
:10208000B0E809F0BB0B802DBF01FF2793585F4FCD
:102090002AF09E3F510568F0B6C025C15F3FECF3C2
:1020A000983EDCF3869577956795B795F7959F5F92
:1020B000C9F7880F911D9695879597F90895E1E0E6
:1020C000660F771F881FBB1F621773078407BA0745
:1020D00020F0621B730B840BBA0BEE1F88F7E095A0
:1020E000089504D06894B111FEC00895E1D088F03D
:1020F0009F5790F0B92F9927B751A0F0D1F0660FF4
:10210000771F881F991F1AF0BA95C9F712C0B1300E
:1021100081F0E8D0B1E00895E5C0672F782F8827D7
:10212000B85F39F0B93FCCF3869577956795B3954D
:10213000D9F73EF490958095709561957F4F8F4FBC
:102140009F4F0895E89409C097FB3EF490958095C1
:10215000709561957F4F8F4F9F4F9923A9F0F92F6D
:1021600096E9BB279395F695879577956795B795EB
:10217000F111F8CFFAF4BB0F11F460FF1BC06F5FD1
:102180007F4F8F4F9F4F16C0882311F096E911C0E3
:10219000772321F09EE8872F762F05C0662371F004
:1021A00096E8862F70E060E02AF09A95660F771F18
:1021B000881FDAF7880F9695879597F90895990FF4
:1021C0000008550FAA0BE0E8FEEF16161706E80701
:1021D000F907C0F012161306E407F50798F0621B22
:1021E000730B840B950B39F40A2661F0232B242BF7
:1021F000252B21F408950A2609F4A140A6958FEF16
:10220000811D811D089597F99F6780E870E060E067
:1022100008959FEF80EC0895DF93CF931F930F9362
:10222000FF92EF92DF927B018C01689405C0DA2E59
:10223000EF0176D0FE01E894A59125913591459165
:102240005591AEF3EF012EDEFE019701A801DA945D
:1022500079F7DF90EF90FF900F911F91CF91DF9171
:10226000089500240A9416161706180609060895FC
:1022700000240A9412161306140605060895092E62
:102280000394000C11F4882352F0BB0F40F4BF2BD1
:1022900011F460FF04C06F5F7F4F8F4F9F4F089511
:1022A00057FD9058440F551F59F05F3F71F0479507
:1022B000880F97FB991F61F09F3F79F087950895EC
:1022C000121613061406551FF2CF4695F1DF08C00B
:1022D000161617061806991FF1CF86957105610528
:1022E00008940895E894BB2766277727CB0197F9D0
:1022F000089565DF08F48FEF08959B01AC0160E05D
:1023000070E080E89FE366C00BD0B9CFAADF28F069
:10231000AFDF18F0952309F076CF7BCF1124E3CF00
:10232000BFDFA0F3959FD1F3950F50E0551F629F3B
:10233000F001729FBB27F00DB11D639FAA27F00D1E
:10234000B11DAA1F649F6627B00DA11D661F829F45
:102350002227B00DA11D621F739FB00DA11D621F2A
:10236000839FA00D611D221F749F3327A00D611D47
:10237000231F849F600D211D822F762F6A2F112429
:102380009F5750408AF0E1F088234AF0EE0FFF1F7C
:10239000BB1F661F771F881F91505040A9F79E3FB3
:1023A000510570F030CF9FCF5F3FECF3983EDCF3E8
:1023B000869577956795B795F795E7959F5FC1F7F0
:1023C000FE2B880F911D9695879597F908959B018F
:1023D000AC019ACF2BDE53CFEE0FFF1F0590F49187
:1023E000E02D0994BB274A3031F4992322F4BDE251
:1023F000909581959F4F0C942F12BB272A3051F452
:10240000992342F4BDE290958095709561957F4F38
:102410008F4F9F4F0C940D12BB27FA01A62F621706
:10242000710581059105330B30FB66F0AA27660F15
:10243000771F881F991FAA1FA21710F0A21B639570
:102440003850A9F7A05DAA3308F0A95DA19336F72B
:10245000B111B1931082CA010C944812BB27FB0141
:102460005527AA27880F991FAA1FA41710F0A41B8D
:1024700083955051B9F7A05DAA3308F0A95DA193E7
:10248000009779F7B111B1931192CB010C944812D6
:10249000DC01FC01672F71917723E1F7329704C0CB
:1024A0007C916D9370836291AE17BF07C8F3089556
:0424B000F894FFCFCE
:0824B40000E100000000080037
:00000001FF
